{
  "abi": [
    {
      "inputs": [
        {
          "internalType": "uint256",
          "name": "_index",
          "type": "uint256"
        }
      ],
      "name": "deleteToDo",
      "outputs": [],
      "stateMutability": "nonpayable",
      "type": "function"
    },
    {
      "inputs": [],
      "name": "getTodo",
      "outputs": [
        {
          "internalType": "string[]",
          "name": "",
          "type": "string[]"
        }
      ],
      "stateMutability": "view",
      "type": "function"
    },
    {
      "inputs": [],
      "name": "getTodosLength",
      "outputs": [
        {
          "internalType": "uint256",
          "name": "",
          "type": "uint256"
        }
      ],
      "stateMutability": "view",
      "type": "function"
    },
    {
      "inputs": [
        {
          "internalType": "string",
          "name": "_todo",
          "type": "string"
        }
      ],
      "name": "setTodo",
      "outputs": [],
      "stateMutability": "nonpayable",
      "type": "function"
    },
    {
      "inputs": [
        {
          "internalType": "uint256",
          "name": "",
          "type": "uint256"
        }
      ],
      "name": "todos",
      "outputs": [
        {
          "internalType": "string",
          "name": "",
          "type": "string"
        }
      ],
      "stateMutability": "view",
      "type": "function"
    }
  ],
  "bytecode": {
    "object": "0x608060405234801561001057600080fd5b5061081c806100206000396000f3fe608060405234801561001057600080fd5b50600436106100575760003560e01c8063549fd1511461005c5780637fa1680a14610071578063b9abac741461008f578063bc8bc2b4146100a2578063ec209aab146100c2575b600080fd5b61006f61006a3660046103cd565b6100d3565b005b6100796101b5565b604051610086919061042c565b60405180910390f35b61006f61009d3660046104a4565b61028e565b6100b56100b03660046103cd565b6102cb565b6040516100869190610555565b600054604051908152602001610086565b60005481106101285760405162461bcd60e51b815260206004820152601f60248201527f5468697320746f646f20696e64657820646f6573206e6f742065786973742e00604482015260640160405180910390fd5b6000600161013560005490565b61013f919061056f565b8154811061014f5761014f610596565b906000526020600020016000828154811061016c5761016c610596565b9060005260206000200190816101829190610635565b50600080548061019457610194610716565b6001900381819060005260206000200160006101b09190610377565b905550565b60606000805480602002602001604051908101604052809291908181526020016000905b828210156102855783829060005260206000200180546101f8906105ac565b80601f0160208091040260200160405190810160405280929190818152602001828054610224906105ac565b80156102715780601f1061024657610100808354040283529160200191610271565b820191906000526020600020905b81548152906001019060200180831161025457829003601f168201915b5050505050815260200190600101906101d9565b50505050905090565b600080546001810182559080527f290decd9548b62a8d60345a988386fc84ba6bc95484008f6362f93160ef3e563016102c7828261072c565b5050565b600081815481106102db57600080fd5b9060005260206000200160009150905080546102f6906105ac565b80601f0160208091040260200160405190810160405280929190818152602001828054610322906105ac565b801561036f5780601f106103445761010080835404028352916020019161036f565b820191906000526020600020905b81548152906001019060200180831161035257829003601f168201915b505050505081565b508054610383906105ac565b6000825580601f10610393575050565b601f0160209004906000526020600020908101906103b191906103b4565b50565b5b808211156103c957600081556001016103b5565b5090565b6000602082840312156103df57600080fd5b5035919050565b6000815180845260005b8181101561040c576020818501810151868301820152016103f0565b506000602082860101526020601f19601f83011685010191505092915050565b6000602080830181845280855180835260408601915060408160051b870101925083870160005b8281101561048157603f1988860301845261046f8583516103e6565b94509285019290850190600101610453565b5092979650505050505050565b634e487b7160e01b600052604160045260246000fd5b6000602082840312156104b657600080fd5b813567ffffffffffffffff808211156104ce57600080fd5b818401915084601f8301126104e257600080fd5b8135818111156104f4576104f461048e565b604051601f8201601f19908116603f0116810190838211818310171561051c5761051c61048e565b8160405282815287602084870101111561053557600080fd5b826020860160208301376000928101602001929092525095945050505050565b60208152600061056860208301846103e6565b9392505050565b8181038181111561059057634e487b7160e01b600052601160045260246000fd5b92915050565b634e487b7160e01b600052603260045260246000fd5b600181811c908216806105c057607f821691505b6020821081036105e057634e487b7160e01b600052602260045260246000fd5b50919050565b601f82111561063057600081815260208120601f850160051c8101602086101561060d5750805b601f850160051c820191505b8181101561062c57828155600101610619565b5050505b505050565b818103610640575050565b61064a82546105ac565b67ffffffffffffffff8111156106625761066261048e565b6106768161067084546105ac565b846105e6565b6000601f8211600181146106aa57600083156106925750848201545b600019600385901b1c1916600184901b17845561070f565b600085815260209020601f19841690600086815260209020845b838110156106e457828601548255600195860195909101906020016106c4565b50858310156107025781850154600019600388901b60f8161c191681555b50505060018360011b0184555b5050505050565b634e487b7160e01b600052603160045260246000fd5b815167ffffffffffffffff8111156107465761074661048e565b6107548161067084546105ac565b602080601f83116001811461078957600084156107715750858301515b600019600386901b1c1916600185901b17855561062c565b600085815260208120601f198616915b828110156107b857888601518255948401946001909101908401610799565b50858210156107d65787850151600019600388901b60f8161c191681555b5050505050600190811b0190555056fea26469706673582212207ef80c72801adb65b545db0b814e44b9daeb94ecfc463b37d1d08e7191e6948864736f6c63430008150033",
    "linkReferences": {}
  },
  "methodIdentifiers": {
    "deleteToDo(uint256)": "549fd151",
    "getTodo()": "7fa1680a",
    "getTodosLength()": "ec209aab",
    "setTodo(string)": "b9abac74",
    "todos(uint256)": "bc8bc2b4"
  },
  "id": 18
}